:080000006C0104000000000087
:0400340000010000C7
:04004000300100008B
:100200004200F8003600F8003200F800801F780045
:10021000200020000C000900B01F78008460A900B5
:10022000D242A900D642A8008425200004088800F4
:100230008CC0A800C4122000340888008460A90083
:10024000A00120000C0009004F1078004F0078003A
:100250003200F9003600F9004200F90000400600C3
:100260004200F8003600F8003200F800801F7800E5
:10027000200020000C000900B01F780084C0A900F5
:100280008CC0A900D242A900D642A90084C0A9000E
:10029000A00120000C0009004F1078004F007800EA
:1002A0003200F9003600F9004200F9000040060073
:1002B0000000E0004220AF00060037002B350900A7
:1002C00000000000FE3F0900000000000000E900FF
:1002D000FAFF3A00000006000FF82000F0FF2000AF
:1002E00020A0B7000000000040442400A0048800C3
:1002F00081E0A800F03F23004227B6004347A80052
:10030000A8A2EF000E00FC00301020003174200085
:1003100082072000A30920008248780083487800E3
:1003200043E7B7004800DE0021742000620420008B
:100330007305200082487800834878008048780060
:10034000F03F23004227B600A8A2EF0014002000CF
:100350000440880044062000A44088000421EF00E7
:100360008425200014088800040028002408880040
:100370001021EF00C4122000640888000400280047
:10038000840888008C60A8008CC0A8008C60A9003C
:100390008CC0A90081E0A9004220EF0081E0A80004
:1003A000D802A900DC02AA00D822A900DC22AA00F7
:1003B000D842A900DC42AA00D862A900DC62AA00E7
:1003C000C642A900CA42AA00D242A900D642AA0047
:1003D000C6E2A900CAE2AA00C702A900CB02AA008D
:1003E0005404090000000000401F200058010200D2
:0C03F00000000000EAFF37000040FE00A3
:0200000401F009
:10000000030100FF3F0000FF330700FF0F3100FF37
:0C0010000F3300FF070000FF03C000FFDB
:00000001FF
;DSPIC30F4011
;CRC=115C  CREATED="24-Jul-18 03:06"
