:08000000C00104000000000033
:0400340000010000C7
:04004000300100008B
:100200004200F8003600F8003200F800801F780045
:10021000200020000C000900B01F78008460A900B5
:10022000D242A900D642A8008425200004088800F4
:100230008CC0A800C4122000340888008460A90083
:10024000A00120000C0009004F1078004F0078003A
:100250003200F9003600F9004200F90000400600C3
:100260004200F8003600F8003200F800801F7800E5
:10027000200020000C000900B01F780084C0A900F5
:100280008CC0A900D242A900D642A90084C0A9000E
:10029000A00120000C0009004F1078004F007800EA
:1002A0003200F9003600F9004200F9000040060073
:1002B000851F7800861F7800871F780000022000C5
:1002C00084025000040032000281D2008381D200F7
:1002D0008502E900FCFF3A00D802A800D822A90054
:1002E000D842A800D862A8008402780003F0A600D3
:1002F000DC22A90003F0A700DC22A8000281D200C2
:100300008381D200DA62AF00FEFF3700DA42AE002E
:10031000FEFF37000080D2008180D200DA02AE00FA
:100320000000A900DA02AF000000A800DA62AF0006
:10033000FEFF3700DA42AF00FEFF37008502E9001A
:10034000EAFF3A00DC62A800CF0378004F03780090
:10035000CF027800000006000000E0004220AF005D
:10036000060037002B35090000000000FE3F0900A1
:10037000000000000000E900FAFF3A00000006005B
:100380000FF82000F0FF200020A0B70000000000C0
:1003900040442400A004880081E0A800F03F23002E
:1003A0004227B6004347A800D802A800D822A900D7
:1003B000D842A800D862A800A8A2EF000E00FC0056
:1003C000301020003174200082072000A309200093
:1003D000824878008348780043E7B7004800DE0091
:1003E00021742000620420007305200082487800F8
:1003F0008348780080487800F03F23004227B60009
:10040000A8A2EF0014002000044088004406200049
:10041000A44088000421EF008425200014088800EF
:1004200004002800240888001021EF00C4122000D6
:100430006408880004002800840888008C60A800F4
:100440008CC0A8008C60A9008CC0A90081E0A90024
:100450004220EF0081E0A8008400200082002000FC
:10046000030020005801020000000000D802A9008B
:10047000DC02AA00D822A900DC22AA00D842A900E6
:10048000DC42AA00D862A900DC62AA00C642A90028
:10049000CA42AA00D242A900D642AA00C6E2A900D6
:1004A000CAE2AA00C702A900CB02AA0054040900AC
:1004B0000000000040062000AC0102000000000027
:1004C00016C8BF000000FB006800E10002003A000F
:1004D000D242A900D642A800E4FF37000040FE0047
:0200000401F009
:10000000030100FF3F0000FF330700FF0F3100FF37
:0C0010000F3300FF070000FF03C000FFDB
:00000001FF
;DSPIC30F4011
;CRC=6A64  CREATED="23-Dec-18 19:40"
